:020000040800F2
:1000000008070020CD010008FD2500085D25000837
:10001000F9250008CD0A0008B926000800000000F4
:10002000000000000000000000000000052600089D
:10003000D10A000800000000012600080926000877
:10004000E7010008E7010008E7010008E7010008F0
:10005000E7010008E7010008E7010008E7010008E0
:10006000E7010008E7010008E7010008E7010008D0
:10007000E7010008E7010008E7010008E7010008C0
:10008000E7010008E7010008E7010008E7010008B0
:10009000E7010008E7010008E7010008E7010008A0
:1000A000E7010008E7010008E7010008E701000890
:1000B00011260008E7010008E7010008E701000831
:1000C000E7010008E7010008E7010008E701000870
:1000D000E7010008E7010008E7010008E701000860
:1000E000E7010008E7010008E701000800F002F856
:1000F00000F05DF814A696E8000CB244B344DA456B
:1001000001D100F054F8BAE80F000FA696E83000CD
:10011000A5EB040504EB0607AAEB0704A7F101070A
:100120004FEA15154FEA3414A4F10104AC4201D38F
:1001300000F03DF813F0010F18BFFB1A43F0010364
:1001400000F001F8DBE71847A0380000C0380000D5
:10015000103A24BF78C878C1FAD8520724BF30C8F3
:1001600030C144BF04680C60704700007047000055
:100170000023002400250026103A28BF78C1FBD8B0
:10018000520728BF30C148BF0B607047662903F093
:10019000C883002070471FB500F022FB0400002038
:1001A000002103F02BF8E0601FBD10B510BD00F07A
:1001B00017FC1146FFF7EFFF02F080FA00F035FC64
:1001C00003B4FFF7F2FF03BC00F078FC0948804756
:1001D00009480047FEE7FEE7FEE7FEE7FEE7FEE729
:1001E000FEE7FEE7FEE7FEE704480549054A064B41
:1001F000704700000D260008ED00000808010020EF
:100200000807002008030020080300200FB41CB5D5
:10021000074B06AA7B4469460090059800F0C7FA90
:100220000020694600F0D6FA1CBC5DF814FB000003
:10023000BD0500002DE9F0474FF0000A894604464D
:10024000C0F820A02046E1688847002876D02528FD
:1002500006D0D4E901219047206A401C2062F1E7D2
:10026000E168204600258847C4F81CA00646002700
:10027000C4F818A02A2E09D0304602F0B7FF38B3D0
:1002800004EB8708303EC8F8186019E059F8041BE1
:10029000204604EB87029161E1688847012F0646FA
:1002A00018D1E069002820DA25F020051DE0D8F8F3
:1002B000180000EB800006EB40003038C8F818004A
:1002C0002046E1688847064602F090FF0028EED1FC
:1002D000012F0AD02E2E08D12046E16888477F1CC6
:1002E0000646022F45F02005C4DBA069002803DA8A
:1002F000404245F00105A061E80701D025F0100556
:10030000B6B1A6F14100192802D8203645F400659F
:100310004A463146204625604D46FFF737FF58B123
:10032000012806D0ED1D25F0070000F1080989E736
:1003300004E005F1040985E730468AE7206ABDE854
:10034000F08710B5431C02E010F8011B71B1810762
:10035000FAD14FF0013202C88C1A8C4314EAC21150
:10036000F9D0C01A0A0603D0C01E10BDC01A10BDB5
:100370000A0401D0801E10BD0902FCD0401E10BD31
:100380007047704770472DE9FF4F0C461E464FF0EF
:10039000FF378BB0D2E90001DDF860800A908A4611
:1003A000C1F30A5505B93D46002108464FF000004B
:1003B000BAF1000F00F4400005DA00EB80004FF4C2
:1003C000400101EA50004FEA9059B9F1010F00DDF8
:1003D000B9460A9850EA4A000ED044F61050A5F2E9
:1003E000FF3545432F14B8F1000F1ED07542291E6A
:1003F0001EDDC9F100021CE0B8F1010F4FF0000052
:1004000001D0302103E0F24305E02154401CB0420A
:10041000FBDB30460022002121540B99C1F80880F3
:10042000C1E900200FB0BDE8F08FBD1B6D1CDEE7F9
:100430004A4600DA694206A800F05CFA06AB93E887
:10044000070003AB83E8070050460A9902F0F2FA6E
:100450008DE80700A0F500501F3800900398002D8C
:100460000ADD42F21F014A460844002303A9039013
:10047000684602F05BFD09E0A0F500504A461F38CF
:10048000002303A90390684602F065FD8DE807008C
:100490000004000C03D04FF0FF30410800E010468C
:1004A000B8F1000F03D00022009215461EE0751E21
:1004B00005D400F099F9303262556D1EF9D5B34676
:1004C0000122084302D000227F1C04E0207830285B
:1004D00001D100227F1E002A099784D01DE0112D32
:1004E00007DA00F081F9303262556D1C50EA0102E2
:1004F000F5D1084302D00098C8B10EE00021681E73
:1005000005E0235C625C63542254401E491C814216
:10051000F7DBAB46A81B401E0990002004F80B0037
:100520000B98099AC0F80880C0E9002B7AE71126D9
:100530004FF0000857E72DE9F04F88460446D21DDA
:1005400022F0070191B0D1E90001CDE90A0102F0E2
:1005500039FE02460B98C00F01D02D2007E020681D
:10056000810701D52B2002E0202101EAC000032AE7
:10057000099001D0072A05DB03464146204600F0DA
:1005800079F90BE12078800601D5E06900E00620CA
:10059000B8F1650F814606D0B8F1660F18D0B8F1F2
:1005A000670F70D131E00020B9F1110F009001DB2D
:1005B000112301E009F101030AAA01A90CA8FFF720
:1005C000E2FEDDE90C70002609F10105834647E0F3
:1005D00001204B4600904FF000470AAA01A90CA841
:1005E000FFF7D1FEDDE90DB00C995D46002610B98C
:1005F00009F101000D18B9EB050003D4C0F1FF3675
:1006000009F10105A5EB09002BE0B9F1010F01DAB1
:100610004FF001090020B9F1110F0090484601DDAB
:10062000112300E003460AAA01A90CA8FFF7ABFEBC
:10063000DDE90C704D4600268346207800070AD479
:10064000AB4500DA5D4601A8012D04DD411911F822
:10065000011C302907D04F4502DA17F1040F04DAE4
:10066000012082460FE06D1EEEE7002F02DCED1B3D
:100670003E4403E0781CA84200DD7D1CB81B00F15D
:10068000010A4FF000472078000703D4AA4501DB98
:100690004FF0FF3A0021B7F1004F0DF143088DF8FC
:1006A000431024D002202B23002F01DA7F422D2378
:1006B0000A21021EA0F1010000DC5FB197FBF1FCF2
:1006C00097FBF1F201FB1C7C17460CF1300C08F88B
:1006D00001CDEEE7A8F1010003702188090501D5DD
:1006E000452100E06521A0F1010800F8011C0998EE
:1006F0000FA9A1EB0807FF1D00B10120411901EB73
:10070000EA70A1693844081A401EA0612078C0062A
:1007100002D42046AFF30080099828B1D4E9012122
:100720009047206A401C20622078C00622D52046CF
:10073000AFF300801EE0002E04DBB34502DD01A80C
:10074000805D00E03020D4E901219047206A401C00
:100750002062761CAAF101005FEA000A0AD100F0CB
:100760003FF8C0680168405CD4E901219047206AE5
:10077000401C2062281EA5F10105DCDC07E0D4E95D
:10078000012118F8010B9047206A401C2062381E96
:10079000A7F10107F3DC2046AFF30080032011B07E
:1007A00041E6000001694A1C02610878704700B503
:1007B0008FB0CDE901310021059105497944CDE99A
:1007C000031011466846FFF735FD0FB000BD00006D
:1007D000E5FFFFFF0A6802F8010B0A60704700009E
:1007E000004870473000002030B5B0F10A0271F1C6
:1007F00000034FEA900E4EEA817EB0EB0E0061EBF3
:1008000091014FEA101E4EEA017E10EB0E0041EB03
:1008100011114FEA102E4EEA016E10EB0E0041EB63
:1008200011214FEA104E4EEA014E10EB0E0041EB43
:100830001141401841F100014FEAD00040EA4170F7
:100840004FEAD1014FEA810444EA907410EB80052D
:1008500044EB01046D1944EB0404521BA3414FF017
:10086000000348BF0A3200D530BD401C41F10001F1
:1008700030BD00002DE9F0411F4604460326016803
:10088000072A01F4006004DB08B116A505E016A5EF
:1008900003E008B115A500E015A521F010002060C7
:1008A000A069C01EA0610FB1401EA0612046AFF339
:1008B00000804FB1D4E9012138469047206A401C9E
:1008C0002062C01C206206E0206AFAE7D4E9012118
:1008D00015F8010B9047761EF8D22046AFF3008042
:1008E000BDE8F0814E414E006E616E00494E4600FB
:1008F000696E66002DE9F047814616468AB0354894
:1009000078440DC88DE80D0032487844801C03AC53
:100910000DC884E80D0041F69B300844372190FB58
:10092000F1F290FBF1F5A5F1800501FB12041B3CEF
:1009300002D56442012000E00020DFF898A0804644
:100940000027FA44AAF1BE0A0EE0E0070AD03246B8
:10095000684607EB470101230AEB810102F0FBFA2D
:100960008DE8070064107F1C002CEED1194F7F44E6
:10097000AE3F19E0E80715D007EB04100DF1180A97
:1009800090E80E008AE80E00C068F04201D1981984
:1009900008903246012306A903A802F0DCFA03AB53
:1009A00083E807006D10641C002DE3D14FF00103B4
:1009B00032466946B8F1000F03A802D002F0B6FA39
:1009C00001E002F0C8FAC9E90001C9F808200AB03C
:1009D000BDE8F087A03000000048704710000020FC
:1009E0007546FFF7F9FFAE4605006946534620F00D
:1009F0000700854618B020B5FFF7F6FBBDE820409C
:100A00004FF000064FF000074FF000084FF0000BCA
:100A1000AC46ACE8C009ACE8C009ACE8C009ACE839
:100A2000C00921F007018D46704710B50446AFF3A9
:100A300000802046BDE81040FFF7C2BB4FF0013CEC
:100A400050F8042B51F8043B9A4221D1A2EB0C033D
:100A5000934313EACC1317D150F8042B51F8043BFD
:100A60009A4215D1A2EB0C03934313EACC130BD19A
:100A700050F8042B51F8043B9A4209D1A2EB0C0325
:100A8000934313EACC13DBD04FF00000704700BF54
:100A9000D01A01BAB1FA81F101F0180122FA01F07D
:100AA000CB40DBB2C0B2C01AC1F120012CFA01F375
:100AB000D11A914311EAC311E6D1704701491820B8
:100AC000ABBEFEE72600020070470000FEE7000014
:100AD000704700002DE9F04F8FB001F041FD054651
:100AE000022000F06DFD01F03BFD8046022000F089
:100AF00067FD01F035FD8146022000F061FD01F047
:100B00002FFD8246022000F05BFD01F029FD044626
:100B1000022000F055FD01F023FD0646022000F002
:100B20004FFD01F01DFD0090022000F049FD01F095
:100B300017FD8346022000F043FD01F011FD0E90E9
:100B4000022000F03DFD01F00BFD0D90022000F0B1
:100B500037FD01F005FD0C90022000F031FD01F0A1
:100B6000FFFC0B90022000F02BFD01F0F9FC0A9035
:100B7000022000F025FD01F0F3FC0990022000F0B6
:100B80001FFD01F0EDFC0890022000F019FD01F0BE
:100B9000E7FC0790022000F013FD01F0E1FC069055
:100BA000022000F00DFD01F0DBFC0590022000F0BA
:100BB00007FD01F0D5FC0490022000F001FD01F0DA
:100BC000CFFC0390022000F0FBFC2846A84588BF1C
:100BD0004046029038BF45462F46A94588BF4F463C
:100BE00038BF4D462A46AA4588BF524638BF5546AB
:100BF0002B46AC4288BF234638BF2546AE46AE42A0
:100C000088BFB64638BF354600982946A84288BFF7
:100C10000146019138BF05462846AB4588BF584676
:100C2000009038BF5D460E99AC46A94288BF8C46FD
:100C300038BF0D460D99A846A94288BF884638BFDF
:100C40000D460C99A946A94288BF894638BF0D4672
:100C50000B99AA46A94288BF8A4638BF0D460A9911
:100C6000AB46A94288BF8B4638BF0D4609992C4632
:100C7000A94288BF0C460E9438BF0D4608992C46F1
:100C8000A94288BF0C4638BF0D4607992E46A94297
:100C900088BF0E460D9638BF0D4606992E46A942CE
:100CA00088BF0E460C9638BF0D4605992E46A942C0
:100CB00088BF0E460B9638BF0D4604992E46A942B2
:100CC00088BF0E460A9638BF0D460399A94288BFD1
:100CD0000D4602990E468F4288BF3E46099628BFB0
:100CE0000F463946BA4288BF114638BF17463A46C2
:100CF000BB4288BF1A4638BF1F463B46BE4588BF29
:100D0000734638BF7746019E3846BE4288BF30469C
:100D1000089038BF374600983E46B84288BF06461E
:100D200038BF07463846BC4588BF604638BF67466F
:100D3000BE46B84588BFC64638BF4746B846B945DF
:100D400088BFC84638BF4F46B946BA4588BFD14666
:100D500038BF5746BA46BB4588BFDA4638BF5F46FC
:100D6000DDF838B0BC46BB4588BFDC4638BF5F46BF
:100D7000A346BC423C4688BF5C46079438BF5F46EA
:100D8000DDF834B03C46BB4588BF5C46069438BFAE
:100D90005F46DDF830B03C46BB4588BF5C460594F5
:100DA00038BF5F46DDF82CB03C46BB4588BF5C468B
:100DB0000C9438BF5F46DDF828B03C46BB4588BF81
:100DC0005C460B9438BF5F46BD4288BF2F46099CE6
:100DD0002546A14288BF0D460D9528BF21460C46E9
:100DE0008A4288BF14460E9438BF11468B468B4208
:100DF00088BF9B4638BF1946089A0B468A4288BF6F
:100E0000134638BF114632468E420E4688BF1646FC
:100E100038BF11460A46884288BF0246049238BF4E
:100E200001460D468E4588BF754638BF71460C4653
:100E3000884588BF444638BF41460846894588BF33
:100E40004846039038BF494689468A4588BFD146FF
:100E500038BF51468A468C4588BFE24638BF614656
:100E6000079A8C468A4288BF944638BF1146069A34
:100E700008468A4288BF10460A9038BF1146059A34
:100E800008468A4288BF1046099038BF11460C9A1E
:100E900008468A4288BF1046089038BF11460B9A10
:100EA00008468A4288BF1046079038BF11468F42D5
:100EB00088BF3946DDE90D0E0746864588BF77466F
:100EC0000C9728BF86467046F34588BF58460D905C
:100ED00038BFDE46F046734588BF984638BF9E4609
:100EE0007346764588BF334638BFB6460498764683
:100EF000704588BF064638BF86467746754588BF29
:100F00002F4638BFAE467546744588BF254638BF64
:100F1000A64603987446704588BF044638BF864687
:100F2000F346F14588BFCB4638BFCE46F146F24581
:100F300088BFD14638BFD646F246F44588BFE24660
:100F400038BFE6460A987246704588BF0246069248
:100F500038BF864609987246704588BF02460A9295
:100F600038BF864608987246704588BF0246099287
:100F700038BF864607987246704588BF0246089279
:100F800038BF86467046714588BF0846079038BF0F
:100F90008E46DDE90C12CDF838E008468A4288BF5B
:100FA00010460B9028BF0A461046904588BF404621
:100FB0000C9038BF42469446934288BF9C4638BF47
:100FC0001A461346964288BF334638BF3246164605
:100FD000974288BF3E4638BF3A461746954288BF7B
:100FE0002F4638BF2A461546944288BF254638BF4B
:100FF00022461446934588BF5C4638BF5A469346FE
:10100000914588BFCB4638BF4A469146924588BF36
:10101000D14638BF524606989246904288BF8246D3
:1010200038BF02460A989646904288BF864638BF27
:10103000024609981146904288BF0146069138BF82
:10104000024608981146904288BF0146099138BF70
:10105000024607981146904288BF0146089138BF62
:101060000246DDE90B080D920146804588BF4146E6
:101070000A9128BF80464046C44588BF60460B9011
:1010800038BFE0464146434588BF194638BF9846B9
:101090004346464588BF334638BFB0464646474577
:1010A00088BF3E4638BFB8464746454588BF2F46AD
:1010B00038BFA8464546444588BF254638BFA046A8
:1010C0004246C34588BF5A4638BFD846C446C14584
:1010D00088BFCC4638BFC8464046C24588BF504648
:1010E000059038BFD0464046C64588BF7046079039
:1010F00038BFF0460698C646404588BF864638BF8A
:10110000804609984446404588BF0446069438BF47
:10111000804608984446404588BF0446099438BF35
:101120008046DDE90A04CDF830808046844288BFDD
:10113000A04628BF0446A346A14288BF8B4638BFBD
:101140000C462046A34288BF1846049038BF1C4670
:101150002346A64288BF334638BF34462646A742B8
:1011600088BF3E4638BF3C462746A54288BF2F462B
:1011700038BF2C462046A24288BF1046089038BF90
:1011800014462146A44588BF614638BF6446059A87
:10119000A246A24288BF924638BF1446079A254607
:1011A000A24288BF154638BF14462046A64588BFD0
:1011B0007046079038BF7446069AA646A24288BF7A
:1011C000964638BF1446099A2046A242C44688BFB4
:1011D00010460A9038BF14460B94C34588BFDC46BE
:1011E00028BFC346049AD9465A4588BF914638BF9E
:1011F00093465A465B4588BF1A4638BF9B465B46B6
:101200005E4588BF334638BFB3465E465F4588BFFC
:101210003E4638BFBB4608985F46584588BF0746DC
:1012200038BF83465C46594588BF0C4638BF8B465D
:101230005946DA4588BF514638BFD34658465D45C2
:1012400088BF2846099038BFAB4607985D46584589
:1012500088BF054638BF8346DA46DE4588BFF2467A
:1012600038BFF3460A98DE46584588BF864638BFE1
:1012700083466046E14588BF48460A9028BFE1465C
:10128000C8464A4588BF904638BF91464A464B45B6
:1012900088BF1A4638BF99464B464E4588BF3346ED
:1012A00038BFB14648464F4588BF384638BFB94673
:1012B0004F464C4588BF274638BFA1464C46494556
:1012C00088BF0C4638BF89460999CC46494588BF36
:1012D0008C4638BF894649464D4588BF2946099105
:1012E00038BFA9464D46CA4588BF554638BFD14686
:1012F0004E46CE4588BF764638BFF1460A998E469F
:10130000884588BFC64628BF8846C246424588BF32
:10131000924638BF90464246434588BF1A4638BF7A
:1013200098464346404588BF034638BF80464046FE
:10133000474588BF384638BFB8464146444588BF10
:1013400021460A9138BFA0464446C44588BF64463A
:1013500038BFE0460999C446414588BF8C4638BF2E
:1013600088464146454588BF2946099138BFA84669
:1013700046454546714688BF354638BFB046F245BA
:1013800088BF5146089128BFF2465746524588BF4C
:10139000174638BF92465246534588BF1A4638BF53
:1013A0009A465346504588BF034638BF82460A983E
:1013B0005146504588BF014638BF8246D6465445FF
:1013C00088BFA64638BFA2465446D44588BF644667
:1013D00038BFE24609985646504588BF06460A96E9
:1013E00038BF82465646554588BF2E4638BFAA4666
:1013F00008980546874288BF3D4628BF07463846BD
:10140000BA4288BF104638BF17463A46BB4288BF2B
:101410001A4638BF1F463B46B94288BF0B4638BF05
:101420000F46BC46BE4588BFF44638BF7746BE4629
:10143000BC4288BFA64638BF27460A993C46B942F7
:1014400088BF0C4638BF0F463146BE423E4688BF75
:101450000E4638BF0F462946A84288BF01460A916A
:1014600028BF28460146824288BF114638BF104631
:101470000246834288BF1A4638BF18460346844551
:1014800088BF634638BF60460546864588BF7546B7
:1014900038BF70468646844288BFA64638BF20467D
:1014A0000446864288BF344638BF30460A9EB4465A
:1014B000B14288BF8C46CDF824C028BF31468C4647
:1014C0008A4288BF944638BF11460A468B4288BF7D
:1014D0001A4638BF19460B468D4288BF2B460A93E1
:1014E00038BF29460D468E4588BF754638BF7146C0
:1014F0000B468C4288BF2346089338BF2146099B80
:101500001E469C4588BF664628BF9C46634662458A
:1015100088BF134638BF94460A9AE646624588BF9C
:10152000964638BF94466446654588BF2C4638BF0A
:10153000AC46089A6546624588BF154638BF944652
:101540003246B34288BF1A460A9228BF33461A462B
:101550009E4588BF724638BF73469E469C4288BFF0
:10156000A64638BF23461C469D4288BF2C4638BF3E
:101570002B460A9DAA4228BF2A46964538BF724686
:10158000944238BF2246DDE90D4525440C9C254494
:101590000B9C25445D444D4445440AEB0506374405
:1015A0003844084460441844104401F0FDFF002111
:1015B000C4F2601101F002FF0FB0BDE8F08F00002F
:1015C000B0B5044600F01EF9054640F20000C2F234
:1015D00000000078611C18BF044400BF00F012F93D
:1015E000401BA042FAD3B0BD2DE9F04F82B00E6887
:1015F000002E00F0FD8041F20042C4F201020423FB
:1016000040F2004E904208BF03234FF6FF7CC4F225
:10161000010E009300240123C1F2100C4FF0000AC8
:101620004FF000094BE000BF41F20002C4F201029A
:10163000009F904208BF022704F00C030F229A403B
:101640002BEA020207FA03F34FEA9A051A4346F817
:1016500025204E6840F20C45F202DEF8082054BF07
:1016600022EA080242EA0802C4F20105CEF8082084
:101670002A68B30254BF22EA080242EA08022A603A
:10168000B303DEF8042054BF22EA080242EA08024B
:10169000F303CEF80420DEF800204FF0010354BF1E
:1016A00022EA080242EA0802CEF800200E680AF197
:1016B000010A36FA0AF204F1040400F0998003FAF0
:1016C0000AFB16EA0B08F1D04E68664512DC122EB2
:1016D00056D8DFE806F0350B4D495555555555554B
:1016E0005555555555555545510000BFD1F80C90ED
:1016F00046E000BF4FF6FF72C1F2210296420FDCB6
:101700000022C1F2110296421AD00022C1F2120246
:10171000964215D00022C1F22102964210D02FE04D
:101720000022C1F2220296420AD00022C1F2310206
:10173000964205D00022C1F23202964220D100BF6B
:101740008A684AB1012A14BFC0F814B0C0F810B0BA
:101750004FF0080914E000BF4FF0040910E000BF8B
:10176000CA6802F104090BE04FF0000908E000BF6D
:10177000CA6802F1080903E0CA6802F10C0900BF57
:1017800002462646B8F5807F24BF0432203E176803
:101790000F25B54027EA050509FA06F63543156019
:1017A000CA79D2067FF582AF41F21803C4F2020370
:1017B0001A68AEF57E7642F001021A601A6802F0ED
:1017C00001020192019A2AF0030256F802B040F693
:1017D0000002C4F20102904208D040F60042C4F276
:1017E000010290427FF420AF012725E7002723E77D
:1017F00002B0BDE8F08F00008068084018BF0120EB
:101800007047000040F20010C2F20000006870470C
:1018100040F2000040F20011C2F20000C2F20001EA
:1018200000780A68104408607047000080B542F2F2
:101830000000C4F20200016841F0100101600320C1
:1018400000F07AF80F2000F005F800F027F80020EB
:1018500080BD000070B540F20006C2F2000640F202
:1018600008013278C2F200014FF47A730968B3FBC1
:10187000F2F20446B1FBF2F1084600F073FB0F2CC4
:101880004FF0010508D838B94FF0FF30214600224B
:10189000002500F025F87460284670BD82B041F242
:1018A0001800C4F202000168022241F00101016047
:1018B000016801F0010101910199416841F08051F5
:1018C0004160406800F08050009000980420C4F20D
:1018D0000100016862F31A61016002B07047000004
:1018E00010B54EF60C5CCEF2000CDCF80030C3F301
:1018F000022E8EF00704042C28BF0424BEF103033B
:101900004FF0FF3E0EFA04F438BF0023A143994084
:101910000EFA03F39A43114300F00F0200F1604303
:101920000901043A03F564436244002848BF02F108
:101930000C03197010BD00004EF60C51CEF20001E0
:101940000A684FF6FF031A4060F30A2242F08060F3
:1019500040F0FD7008607047002804BF0120704708
:101960002DE9F04381B042F20008C4F202080446B7
:10197000D8F800000D4600F0070081420CD9D8F8D5
:10198000000020F007002843C8F80000D8F8000045
:1019900000F00700A8426CD1206841F204098107D9
:1019A000C4F2020917D5410705D5D9F8001041F452
:1019B000E061C9F80010010705D5D9F8001041F41D
:1019C0006051C9F80010D9F80010A26821F0F001A8
:1019D0001143C9F80010C00742D1D8F8000000F048
:1019E000070085420CD2D8F8000020F007002843F9
:1019F000C8F80000D8F8000000F00700A84238D16D
:101A00002068410707D5D9F80010E26821F4E061A9
:101A10001143C9F80010000708D5D9F80000216962
:101A200020F4605040EAC100C9F80000D9F8002055
:101A300002F00C00082841F20020C0F27A004DD1DB
:101A400043F6D613C2F38341C0F60003595CD203B8
:101A500038D440F60010C0F23D0048433EE000BFDD
:101A6000606859F8041C022808D0012826D189038F
:101A700006D4012001B0BDE8F08300BF8901F8D58C
:101A8000D9F8001021F003010843C9F80000FFF75E
:101A9000B9FE064641F28837D9F80000616800F0C7
:101AA0000C00B0EB810F98D0FFF7ACFE801BB84262
:101AB000F2D9032001B0BDE8F08300BF8907D8D573
:101AC000DEE700BFD9F8002043F6D413C2F340424A
:101AD000C0F600039A5C4843B0FBF2F0D9F800105E
:101AE00043F6BC12C1F30311C0F60002515C40F290
:101AF000080220FA01F140F20400C2F2000000687E
:101B0000C2F200021160FFF7A5FE002001B0BDE89F
:101B1000F083000040F2080041F20401C2F200002C
:101B2000C4F202010068096843F6CC12C1F3022135
:101B3000C0F60002515CC8407047000040F2080047
:101B400041F20401C2F20000C4F202010068096817
:101B500043F6CC12C1F3C221C0F60002515CC8406A
:101B600070470000002804BF012070472DE9F041B4
:101B700082B00446007841F20006C007C4F20206B3
:101B80000CD0706800F00C00042840F081803068B0
:101B9000800303D56068002800F046812078800724
:101BA0001BD5706810F00C0F09D0706800F00C00A5
:101BB000082840F087807068C00300F18380306897
:101BC000800703D52069012840F02E8130686169C3
:101BD00020F0F80040EAC10030602078000713D4FC
:101BE000207840072CD4E569002D00F0188170683A
:101BF00000F00C00082840F0A780012D40F004817F
:101C0000012002B0BDE8F081A069002800F08480C6
:101C10000020C4F242200121C0F88014FFF7F2FD39
:101C2000054600BF706A800700F1B280FFF7EAFD49
:101C3000401B0228F6D9032002B0BDE8F08100BFA6
:101C4000F0695FEAC00808D4F06940F08050F061A4
:101C5000F06900F080500090009847F20007C4F24D
:101C600000073868C00549D4386840F4807038608F
:101C7000FFF7C8FD054600BF3868C0053ED4FFF732
:101C8000C1FD401B6428F7D9032002B0BDE8F081F4
:101C9000706800F00C00082803D17068C0033FF59D
:101CA00076AF61683068002900F00C81B1F5A02F93
:101CB00000F00081B1F5803F40F01A8140F480309F
:101CC0001CE100BF2069002840F20000C4F242205D
:101CD00000F0888001210160FFF794FD054600BFF8
:101CE000306880073FF572AFFFF78CFD401B02287C
:101CF000F6D9032002B0BDE8F08100BFE168306A88
:101D0000002900F09D80052900F09280012940F013
:101D1000AF8040F00100B1E00020C4F24220002179
:101D2000C0F88014FFF76EFD054600BF706A80079B
:101D30007FF556AFFFF766FD401B0228F6D903205A
:101D400002B0BDE8F08100BF0027C4F242270020A6
:101D50003866FFF757FD022D05460DD1306880012A
:101D600040F1DE80FFF74EFD401B02284FF00300DC
:101D7000F4D902B0BDE8F081306880014FD5FFF79B
:101D800041FD401B02284FF00300F5D9F1E700BFE9
:101D900040F20800C2F20000006844F6D351C1F2DC
:101DA0006201A0FB0101480A019000BF00BF019839
:101DB000411E002801913FF413AF00BF0198411E5E
:101DC000002801913FF40CAF00BF0198411E00288C
:101DD00001913FF405AF00BF0198411E0028019119
:101DE000E4D1FDE600210160FFF70CFD054600BFD0
:101DF000306880077FF5F1AEFFF704FD401B022835
:101E00004FF00300F4D9B4E77068216A00F480321F
:101E10008A4209D1616A00F47010884204D100201E
:101E200002B0BDE8F08100BF012002B0BDE8F08142
:101E300040F004003062306A40F001001EE000BF54
:101E400020F001003062306A20F004003062FFF7B9
:101E5000D9FC054641F28837306A800720D5FFF764
:101E6000D1FC401BB8424FF00300F5D981E700BF19
:101E700020F001003062306A20F004003062FFF789
:101E8000C1FC054641F28837306A800708D4FFF765
:101E9000B9FC401BB842F7D9032002B0BDE8F0817D
:101EA000B8F1000F3FF59FAEF06920F08050F0616F
:101EB00099E600BF40F480203060306840F4803004
:101EC0001CE000BF20F480303060306820F48020B7
:101ED0003060FFF797FC0546306880037FF55EAE03
:101EE000FFF790FC401B64284FF00300F4D940E753
:101EF00020F480303060306820F480203060FFF7BC
:101F000081FC0546306880033FF548AEFFF77AFC58
:101F1000401B6428F6D9032002B0BDE8F08100BF61
:101F2000206AB0F5803F05D17168A26821F40031C4
:101F3000114371607168626A21F47411114308439E
:101F4000706001203866FFF75DFC04463068800150
:101F50003FF565AFFFF756FC001B02284FF003006A
:101F6000F4D906E7411E0020B0EB116F1CBF012021
:101F700070474EF21002CEF2000251604EF623512D
:101F8000CEF20001F0230B700721906011607047C2
:101F90007047000070470000002804BF0120704710
:101FA00010B590F83D1031B9002180F83C1004467E
:101FB00000F070F82046022180F83D10016840F2E0
:101FC000FF740B68C4F2000442F6004CA142C4F254
:101FD000010C15DCB1F1804F1AD040F20042C4F27E
:101FE0000002914214D0A14218DCB1F1804F1DD003
:101FF00040F20042C4F20002914217D01AE000BF42
:10200000614505D040F60002C4F200029142EAD1D7
:10201000826823F070031343A142E6DD614505D0D9
:1020200040F60002C4F20002914203D1026923F497
:1020300040731343846923F08002D0F804E0C3683E
:10204000224361450A60CB62C1F828E002D14269AF
:10205000CCF8302001224A610B69DB0703D00B6901
:1020600023F001030B6180F8462080F83E2080F8C1
:102070003F2080F8402080F8412080F8422080F8FE
:10208000432080F8442080F8452080F83D2000203F
:1020900010BD00007047000090F83D1001291CBFE2
:1020A00001207047022180F83D10006840F2FF7166
:1020B000C4F20001884209DCB0F1804F12D040F236
:1020C0000041C4F2000188420CD012E042F6004107
:1020D000C4F20101884205D040F60001C4F20001BB
:1020E000884206D1816801F00701062904BF00205B
:1020F0007047016841F00101016000207047000055
:102100007047000070B504460068C5680669B107ED
:1021100016D515F0020113D06FF002010161012103
:1021200021778069800703D02046FFF7E9FF05E0AB
:10213000204600F08FF8204600F08EF8002020772F
:10214000700719D515F0040016D020686FF004014F
:10215000016102212177806910F4407F04D020467C
:10216000FFF7CEFF06E000BF204600F073F82046E0
:1021700000F072F800202077300717D515F008001E
:1021800014D020686FF00801016104212177C06933
:10219000800703D02046FFF7B3FF05E0204600F09C
:1021A00059F8204600F058F800202077F00619D59D
:1021B00015F0100016D020686FF0100101610821A1
:1021C0002177C06910F4407F04D02046FFF798FFC4
:1021D00006E000BF204600F03DF8204600F03CF845
:1021E00000202077F00718BF15F0010002D130065B
:1021F00009D412E020686FF001010161204600F06F
:102200002DF8300609D515F0800006D020686FF053
:10221000800101612046FFF7BBFE700609D515F06D
:10222000400006D020686FF040010161204600F0B8
:1022300017F8B00658BF70BD15F0200008D021680F
:102240006FF0200220460A61BDE87040FFF7A2BE91
:1022500070BD00007047000070470000704700002C
:1022600070470000002804BF0120704710B50446E5
:1022700090F8410028B9002084F84000204600F082
:1022800063F8242084F841002068D4E90212C3686E
:1022900023F40053C360036923F440531A430261DB
:1022A000D4E904231143C268194341F20C639A43F1
:1022B0001143C1604169A26921F44071114343F6A1
:1022C0000002C4F201029042416103D0FFF722FCF8
:1022D00002E000BFFFF732FCD4E900231921484394
:1022E0009900B0FBF1F048F21F5CC5F2EB1CA0FBBB
:1022F0000C314FF69C734909C0F6FF7301FB0300D4
:10230000322303EB0010A0FB0C03F02000EA531073
:1023100000EB0110C3F343110844906010692021C1
:1023200020F490401061506920F02A005061D0687C
:1023300040F40050D0600020606484F8411084F8BC
:102340004210606310BD000070B586B040F6000416
:10235000C4F20104006804F5405100268842059645
:10236000CDE90366029601D006B070BD41F21800B7
:10237000C4F20200016802AD41F4804101600168CD
:1023800001F4804101910199016841F0040101606B
:102390000068294600F00400019001984FF4007095
:1023A000029002200390032005902046FFF71CF9BD
:1023B0004FF48060CDE90206204629460496FFF7D7
:1023C00013F906B070BD00002DE9F04381B004465A
:1023D00090F84100202809D100294FF0010018BFD2
:1023E000002A07D101B0BDE8F08300BF022001B090
:1023F000BDE8F0830020606421201D460E4684F86D
:1024000041001746FFF7FEF9A784E784A1688146DB
:10241000B1F5805F02D1206900285DD037460020E9
:10242000E28C2168002A5DD06A1C24D0002D4AD09D
:10243000804600BF0868000608D4FFF7E3F9A0EB68
:102440000900A8427AD82168C868F3E717B117F8DD
:10245000010B04E038F8020B00276FF35F2048609F
:10246000E08C0138E084E08C0028E3D13AE000BF42
:102470000A68120609D40A68120606D40A68120607
:102480005CBF0A685FEA0262F2D51FB117F8012B40
:1024900005E000BF30F8022B00276FF35F224A608F
:1024A000E28C013AE284E28C002AE4D11AE000BF17
:1024B00030F8022B00276FF35F224A60E28C013A6A
:1024C000E284E28C72B10A68120635D5002FEFD093
:1024D00017F8012BF1E700BF00273046E28C216896
:1024E000002AA1D1086840061ED42DB3681C14D15F
:1024F000086840062AD40868400627D408684006C1
:1025000024D4086840064FF00000F1D50DE000BF6C
:102510002068C1680068400618D4FFF773F9A0EB83
:102520000900A842F4D909E00020202184F84110D4
:1025300001B0BDE8F08300BFFFF764F9032020215C
:1025400084F8411001B0BDE8F08300BF00202021D5
:1025500084F8411001B0BDE8F0830000FEE7000000
:10256000F0B581B040F27006C2F2000640F60005F8
:1025700048F2A0643068C4F20105C0F201040021F1
:10258000416200BF28460121FFF736F93168012872
:1025900006D1486AA042F5D9204601B0F0BD00BF7F
:1025A0000020486228460121FFF726F9316818B952
:1025B000486AA042F6D9EFE7002048624F6A00BFA0
:1025C00028460121FFF718F9012807D13068406A31
:1025D000C01BA042F4D9DFE7A042DDD82846012184
:1025E000FFF70AF931680028496AA1EB0700F3D028
:1025F0000446204601B0F0BDFEE70000FEE7000003
:102600007047000070470000FFF702B970470000F4
:1026100040F27000C2F20000FFF774BD70B584B0E4
:1026200041F21800C4F20200016840F6000441F4CF
:10263000804101600168C4F2010401F4804100910D
:10264000009901686D4641F00401016000680026B0
:1026500000F00400009000984FF4007000900220F9
:10266000019003200390204629460296FEF7BCFF06
:102670004FF48060CDE90006204629460296FEF719
:10268000B3FF40F2B80004F54051C2F200000C2341
:102690004FF4E13280E84600C0E90366C0E9053640
:1026A000C661FFF7DFFD28B1EFF3108072B600BFFF
:1026B000FEE700BF04B070BDFEE70000B0B0FFF75A
:1026C000B5F800240120CDE90844CDE90644039083
:1026D00007904FF4E0104FF4803102250C9003A8CE
:1026E000CDE90414CDE90A51FFF73CFA20B1EFF32C
:1026F000108072B6FEE700BF0F20CDE92B054FF426
:102700008060CDE92E042BA802212D94FFF724F937
:1027100020B1EFF3108072B6FEE700BF41F218055A
:10272000C4F202052868002440F0040028602868EC
:1027300003A900F00400039003980120CDE90304ED
:1027400040F60000C4F2010006940594FEF74CFF29
:10275000FFF764FF68684FF0804140F00100686057
:1027600068684FF0FF3300F001000390039840F2D7
:102770007000C2F20000472280E81600C0E903346E
:102780008461FFF709FC28B1EFF3108072B600BF37
:10279000FEE700BF40F27000C2F20000FFF77CFCD1
:1027A0004FF4FA70FEF70CFFFEF794F904460A2086
:1027B000FEF706FFFEF78EF90146204600F066FDA3
:1027C00004460A20FEF7FCFEFEF784F90146204687
:1027D00000F05CFD04460A20FEF7F2FEFEF77AF9EF
:1027E0000146204600F052FD04460A20FEF7E8FEAE
:1027F000FEF770F90146204600F048FD04460A2025
:10280000FEF7DEFEFEF766F90146204600F03EFDCB
:1028100004460A20FEF7D4FEFEF75CF90146204686
:1028200000F034FD04460A20FEF7CAFEFEF752F916
:102830000146204600F02AFD04460A20FEF7C0FEAD
:10284000FEF748F90146204600F020FD04460A2024
:10285000FEF7B6FEFEF73EF90146204600F016FDF3
:1028600004460A20FEF7ACFEFEF734F90146204686
:1028700000F00CFD04460A20FEF7A2FEFEF72AF93E
:102880000146204600F002FD04460A20FEF798FEAD
:10289000FEF720F90146204600F0F8FC04460A2025
:1028A000FEF78EFEFEF716F90146204600F0EEFC1C
:1028B00004460A20FEF784FEFEF70CF90146204686
:1028C00000F0E4FC04460A20FEF77AFEFEF702F967
:1028D0000146204600F0DAFC04460A20FEF770FEAE
:1028E000FEF7F8F80146204600F0D0FC04460A2026
:1028F000FEF766FEFEF7EEF80146204600F0C6FC45
:1029000004460A20FEF75CFEFEF7E4F80146204686
:1029100000F0BCFC04460A20FEF752FEFEF7DAF88F
:102920000146204600F0B2FC04460A20FEF748FEAD
:102930000021C4F2A011204600F040FD00F07AFC16
:102940000DF10C0A02460B462DA15046FDF75EFC28
:102950005046FDF7F6FC82B240F2B800C2F2000029
:1029600051466423FFF730FD42F2004BC4F6741B5E
:10297000FEF7B0F84CF6CD41C3F6CC51064600F058
:10298000F5FC80465846314600F018FD8146304639
:102990005946B8F1000F08BFC14600F00FFD4CF6D4
:1029A000C001C4F6FD1100F009FD4DF2A541C5F2CC
:1029B000683100F075FE0646484600F03BFC0546CF
:1029C00030460F4600F036FC06460C46504612A133
:1029D0002A463B46CDE90064FDF718FC5046FDF75A
:1029E000B0FC82B240F2B800C2F20000514664234B
:1029F000FFF7EAFC4FF47A70FEF7E2FDB8E700BF9C
:102A0000426173656C696E652054203D20252E322D
:102A1000662075730D0A000066203D20252E326663
:102A200020487A207C2043203D20252E32662070CD
:102A3000460D0A005FEA400C08BF91F0000F4FEA14
:102A40008C234FEAC12243EA51514FEA1C5018BF70
:102A500000F5F0404FEA300018BF41F000415FEA56
:102A60006C5C00F02980BCF1FF3F08BF40F0804063
:102A70007047130C06BF12044FF0100C4FF0000CFF
:102A8000130E04BF12020CF1080C130F04BF120145
:102A90000CF1040C930F04BF92000CF1020CD30F45
:102AA00004BF52000CF1010C11464FF00002A0F1DE
:102AB0001F00A0EB0C00704711F0004F08BF7047DB
:102AC00031F000413FF4D5AF0B0C06BF09044FF0C5
:102AD000100C4FF0000C0B0E04BF09020CF1080C97
:102AE0000B0F04BF09010CF1040C8B0F04BF89000C
:102AF0000CF1020CCB0F04BF49000CF1010CCCF11E
:102B0000200322FA03F341EA030102FA0CF2A0EBDC
:102B10000C0000F10100704723F07F4720F07F4C4C
:102B200080EA030000F00040ACEB070303F57C53A0
:102B300003F1FF032DE9804909B44FEA144324EA65
:102B400003484FEA154B25EA0B4E0FF2042606EB1D
:102B500013273E7803FB0667C7F5000707FB06F659
:102B60004FEAD64606F102064FEA543707FB066CD9
:102B7000CCF1005C4FEA1C472CEA074C0CFB06F535
:102B800007FB06F404EB15464FEA961649085FEA80
:102B9000320234BF00204FF000404FEAD13706FB2D
:102BA00007FC4FEA1C4C0CFB0BF7D21B03FB0CF78A
:102BB00061EB07010CFB0EF7B0EB074072EB17421D
:102BC0000CFB08F734BFA2EB0742B2EB074261EB04
:102BD00017414FEA0C444FEA910706FB07FC4FEA06
:102BE0001C4C0CFB0BF7B0EBC74072EB573203FBEE
:102BF0000CF734BFA2EBC742B2EBC74261EB5731CF
:102C00000CFB0EF7B0EBC70072EB57720CFB08F72A
:102C100034BFA2EBC702B2EBC70261EB57714FEAB8
:102C2000816141EA92114FEA826242EA90124FEAD0
:102C3000806004EBCC04039F4FEAD13706FB07FC0E
:102C40004FEA1C4C0CFB0BF7D21B03FB0CF761EBA0
:102C500007010CFB0EF7B0EB074072EB17420CFBC1
:102C600008F734BFA2EB0742B2EB074261EB174112
:102C70004FEA8C5504EB9C244FEA910706FB07FCB6
:102C80004FEA1C4C0CFB0BF7B0EBC74072EB573212
:102C900003FB0CF734BFA2EBC742B2EBC74261EBB8
:102CA00057310CFB0EF7B0EBC70072EB57720CFB01
:102CB00008F734BFA2EBC702B2EBC70261EB577152
:102CC0004FEA816141EA92114FEA826242EA901230
:102CD0004FEA806015EB4C2544F100044FEAD137F0
:102CE00006FB07FC4FEA1C4C0CFB0BF7D21B03FB4B
:102CF0000CF761EB07010CFB0EF7B0EB074072EB32
:102D000017420CFB08F734BFA2EB0742B2EB0742B5
:102D100061EB17414FEA813141EA92414FEA823239
:102D200042EA90424FEA80304FEA0C7615EB1C15D0
:102D300044F1000448EA03434EEA0B484FF0000E0A
:102D4000B2EB080C71EB030724BF624639464EEB29
:102D50000E0E4FF0000B0018524149414BEB0B0B8C
:102D6000B2EB080C71EB03077BF1000B24BF62464A
:102D700039464EEB0E0E4FF0000B00185241494100
:102D80004BEB0B0BB2EB080C71EB03077BF1000B69
:102D900024BF624639464EEB0E0E51EA020718BFB9
:102DA00046F0010616EB0E7655F1000254F10001D3
:102DB00003D5BDE88901BDE80088BDE88901BDE80B
:102DC0000048B619524141EB0101A3F101037047DC
:102DD00080807F7E7D7C7B7A797877767675747358
:102DE000727171706F6E6E6D6C6C6B6A6A69686817
:102DF000676666656464636362616160605F5F5EAD
:102E00005E5D5D5C5C5B5B5A5A5959585857575622
:102E10005655555554545353525252515150505087
:102E20004F4F4F4E4E4D4D4D4C4C4C4B4B4B4A4AD9
:102E30004A4949494848484747474746464645451D
:102E40004544444444434343434242424241414156
:102E50009C46002B30D477002BD04FEA37071CB5A7
:102E600003B44FF010004FF01001BAF1000F06D07C
:102E7000BCF1000FDCBF40F0080040F008014FF04B
:102E800000000FBCBDE810400BF1010BBBF1010FBE
:102E900008BF5FEA170722BF12F1010211F1010119
:102EA0004FF0004143F1000300F0004043EA00000E
:102EB0007047F9D35708D0E746EA06464FEA164668
:102EC00013F1400F1FDD13F1200FDFBF16430A4639
:102ED000002120335B42BED0C3F1200746EA0646FC
:102EE0004FEA164602FA07F746EA070622FA03F205
:102EF000C3F1200701FA07F742EA070221FA03F1BA
:102F00004FF00003A7E746EA020646EA06464FEA04
:102F1000164646EA0106BCBF46EA0646360C4FF0A6
:102F200000034FF000024FF0000194E72DE9804CC0
:102F300070B49A46934691E8380007C831EA400CCD
:102F400048BF34EA430C03D5FFF7E6FDFFF780FFE7
:102F5000F0BCBDE8008C2DE9804C70B49A469346D5
:102F600091E8380007C810F0804F08BF13F0804F79
:102F700003D100F005F8FFF76BFFF0BCBDE8008C53
:102F800020F07F4723F07F4C80EA030000F00040F0
:102F900007EB0C03A3F57C53A3F1FE0392F0000FA3
:102FA00000F0B38095F0000F00F077802DE9014923
:102FB0004FEA114021EA00484FEA144624EA064746
:102FC00000FB06FC08FB06F607FB08F818EB0648B2
:102FD0004CEB164C00FB07F718EB07484CEB17407F
:102FE0004FEA124B22EA0B4E4FEA154625EA0647F6
:102FF0000BFB06FC0EFB06F607FB0EFE1EEB064E59
:103000004CEB164C0BFB07F71EEB074E4CEB174B2C
:1030100018EB0B0840F1000018EB0E0B58EB000802
:1030200040F100008F1A4FF000014FF000063CBF46
:10303000C943661B14BFB5EB040C00213CBFC94358
:10304000F61B4FEA174427EA04454FEA1C472CEACF
:10305000074C04FB076205FB07F70CFB05F616EBB4
:10306000074642EB174204FB0CFC16EB0C4642EB06
:103070001C421BEB060658EB020241414EEA8E0E43
:1030800046EA9E0601D5BDE80189B619524141EBD9
:103090000101A3F10103BDE801894FEA144524EAC7
:1030A00005464FEA114721EA074C05FB07F406FBEA
:1030B00007F70CFB06F111EB074144EB174405FB46
:1030C0000CFC11EB0C4144EB1C444FEA124722EA82
:1030D000074C05FB07F206FB07F70CFB06F616EBA1
:1030E000074642EB174205FB0CFC16EB0C4642EB85
:1030F0001C456A1854F1000148BF7047B619524187
:1031000041EB0101A3F10103704795F0000F37D0A7
:103110004FEA114221EA02464FEA144724EA074CDB
:1031200002FB07F106FB07F70CFB06F414EB074460
:1031300041EB174102FB0CFC14EB0C4441EB1C412E
:103140004FEA154725EA074C02FB07F506FB07F790
:103150000CFB06F616EB074645EB174502FB0CFC8D
:1031600016EB0C4645EB1C42121951F1000148BF09
:103170007047B619524141EB0101A3F101037047B9
:103180004FEA144524EA05464FEA114721EA074C65
:1031900005FB07F106FB07F70CFB06F212EB0742F3
:1031A00041EB174105FB0CFC12EB0C4251EB1C41AF
:1031B0004FF0000648BF7047921841EB0101A3F1A0
:1031C00001037047490050EAC12018BF04204A0D8E
:1031D00018BF40F0010040F2FF72B2EB515F08BF30
:1031E00040F00200012808BF0520704730380A2847
:1031F00001D20120704700207047000010B500295F
:103200000AD00878002807D005487844FDF716FC56
:10321000002801D0002010BD0248784410BD0000F5
:10322000FE070000F60700000808A0F500114FEAAD
:103230003101704743004FEAD30C4FEA3C0C434046
:103240001FBF40070CF1605113F0FE4F70471CF098
:10325000006F03D10CF00041002070470CF00043D8
:1032600043EA507040EACC0010B500F09AFA00BF73
:10327000000000924FEA0001FFF7D6BF4FF0004177
:10328000A1F500214FF000007047000090EA010F07
:1032900048BF81F0004100F1D682421A3CBF801A3B
:1032A00089184FEAD052A2EBD1534FF07F4C1CEA61
:1032B000410F18BF9CEA026F00F03B804FF0004CBA
:1032C0004CEA00204CEA012121FA03FC10EB0C0C23
:1032D0001ED202F1FF325FEA1C2040EBC25038BF21
:1032E00070471CF07F0F4FEA400C18BFBCF17F4FB6
:1032F00038BF7047C3F12003994008BF20F0010098
:10330000BCF17F4F38BF7047A0F1C04000F08FBACA
:103310004FEA3C00000A40EBC25028BF1CF0FF0FF0
:103320004FEA400CE6D018BFBCF17F4F38BF704762
:10333000EAE79CEA026F05D010EA5C0F08BF00F0D4
:103340000040704710B500F02CFA00BF64FBBE3E91
:1033500010B500F0F5F80CBF0120002010BD10B52D
:1033600000F0EEF814BF0120002010BD10B500F0F1
:103370002FF98CBF0120002010BD10B500F028F9F6
:103380002CBF0120002010BD10B500F055F994BFEE
:103390000120002010BD10B500F04EF934BF01200F
:1033A000002010BD401058BFC0F14040491058BF28
:1033B000C1F140418142EFF3008070474FF47F0C30
:1033C0001CEAD0121EBF1CEAD11392EA0C0F93EA3A
:1033D0000C0F00F0858090EA010F48BF42F4807224
:1033E00040F4000C41F400002CF07F4120F07F40BD
:1033F00000B5A2EB030281420FF2081CACEB504E69
:103400009EF800E0C0F100004FEA4E0E00FB0EFCFB
:1034100038BF49004FEA2C1C0CFB0EF34FEACE1EBE
:103420000EEB635E4FEA112C0EFB0CFC4FEAC12140
:103430004FEA1C5300FB031102F5FA024FEA112C6C
:103440000EFB0CFC4FEA01314FEADC4C00FB0C1187
:1034500042EB2242C14228BF09184CEB03335DF80E
:1034600004EB10EB410143EBC250B2F57C0F38BFC7
:10347000704729D512F0F00F1CBF00F1C04000F0DA
:1034800000407047008182838485868788898B8C81
:103490008D8E8F919293959697999A9C9D9FA0A2BD
:1034A000A3A5A7A8AAACAEB0B2B3B5B7B9BCBEC00D
:1034B000C2C5C7C9CCCED1D4D7D9DCDFE2E6E9ECAE
:1034C000F0F3F7FAFE0000004FEA400C0CF1807CAC
:1034D000BCF17E4F28BF7047B0F1C04000F0A7B9E3
:1034E0000CEAD11390EA010F48BF42F480726245A2
:1034F00038BF634507D213F47F0F16D080EA01006E
:1035000000F00040704710B500F04BF9097EFC3E1A
:1035100000F005B880EA010000F00040704780EA42
:10352000010000F0004000F082B912F47F0F04BFE8
:103530000248704780EA010000F079B90000C07FBE
:1035400050EA010C00F113801CF5000F58BFBCF5C8
:10355000000F01D48842704707D710F5000F58BFFD
:1035600011F5000F15D488427047894270471CF549
:10357000000F04D5BCF5000FF7D5814270474FF01E
:10358000807C1CEB400F38BF1CEB410F01D2814205
:10359000704710B500F005F9922449004FF0005033
:1035A0004FF08051FFF7FEBEB0FA80F310FA03F23D
:1035B000C3F19D030AD0D90501EB1220530638BF91
:1035C000704700F1010008BF20F0010070470000C3
:1035D00050EA010C00F113801CF5000F58BFBCF538
:1035E000000F01D48842704707D710F5000F58BF6D
:1035F00011F5000F15D488427047894270471CF5B9
:10360000000F04D5BCF5000FF7D5814270474FF08D
:10361000807C1CEB400F38BF1CEB410F01D2814274
:10362000704710B500F0BDF8922449004FF080506B
:103630004FF00051FFF7B6BE50EA010C00F11380C5
:103640001CF5000F58BFBCF5000F01D4884270472D
:1036500007D710F5000F58BF11F5000F15D4884299
:103660007047894270471CF5000F04D5BCF5000F68
:10367000F7D5814270474FF0807C1CEB400F38BF7C
:103680001CEB410F01D28142704710B500F089F860
:10369000922449004FF000504FF08051FFF782BE56
:1036A0004FF47F0C1CEAD0121EBF1CEAD11392EA21
:1036B0000C0F93EA0C0F00F0478090EA010F48BF0F
:1036C00042F480724FF0004C4CEA00204CEA012199
:1036D00002EB0302A0FB0113A2F50002002918BFB0
:1036E00043F001035B0028BF4FEA330342EB224261
:1036F0005FEA132C4CEBC2502EBFBCEB436FB2F50C
:103700007C0F70474FEA036CBCF1004F08BF20F0FC
:103710000100B2F57C0F38BF70470BD582F0FF0275
:1037200012F5803FC8BF704700F1C040D8BF00F01D
:103730000040704700F5000C5FEA4C0C48BF704732
:10374000B0F1C04000F073B80CEAD11390EA010F59
:1037500048BF42F48072624538BF634504D280EAB4
:10376000010000F00040704710B500F01AF800BFEB
:103770008900013E00F007B800F009B85FEA410C8B
:103780005FEA1C6C08D080EA010000F050B85FEAE4
:10379000400C5FEA1C6CF6D14FF00040A0F58000B1
:1037A00070470EF1020E2EF0030E5EF8044B244219
:1037B00004D44FEA4102B2F17F4F11D84FEA4003DF
:1037C000B3F17F4F0CD80ED14FEAD07C0CEB4C0CF0
:1037D0000CF1020CB2F17F4F08BF4CEBD17C04E03E
:1037E0004FF0080C01E04FEAD17C0CEB4C0324FABB
:1037F00003F404F00704B4F1040C06D20EEB840CBD
:10380000BDE810404CF0010C6047DFE80CF0070801
:1038100002024FF00040A0F5800010BD08464200B3
:1038200018BFD2F1807288BF00F0004010BDFF21A8
:1038300041EAD050C005704790EA010F48BF81F0BF
:1038400000413FF52AAD421A04D882F00042A0EBB5
:10385000020011444FEAD052A2EBD1534FF07F4CFB
:103860001CEA410F18BF9CEA026F4AD04FF0004C8F
:103870004CEA00204CEA012121FA03FCB0EB0C0CCD
:103880000FD412F0FE0F36D05FEA4C001DD50012A7
:1038900040EBC25038BF70471CF03F0F18BF704755
:1038A0000BE05FEA1C20A2F1010240EBC25038BFDE
:1038B00070471CF07F0F18BF7047C3F12003994079
:1038C00014BF401E20F0010070474FEA1223800809
:1038D00008BF7047B0FA80FCA2EB0C02CCF1280CB8
:1038E00060FA0CF093EA122F04BF00EBC25070474D
:1038F0004FEAC3707047130A5FEADC1008BF7047D5
:10390000F6E79CEA026F04D010EA5C0F08BF0020C3
:10391000704710B5FFF745FF40DFF63E81F00040ED
:103920007047FCF708BE000002400000000000A045
:103930000000000005400000000000C8000000007A
:103940000C4000000000409C0000000019400000F6
:103950000020BCBE0000000034400000BFC91B8E28
:1039600000000004B5400000504BCFD06607E2CF06
:10397000010000006C4100003E8251AADFEEA73436
:1039800001000000D9420000DCB5A0E23A301F97E8
:10399000FFFFFFFFB4450000FD25A0C8E9A3C14F0C
:1039A000FFFFFFFFFF3F000000000080000000005D
:1039B000FF3F000000000080000000000000000049
:1039C00000000000010203040607080900000000CF
:1039D00001020304010202030405060708090A0B99
:1039E0000C0D0E0F10100000283A000800000020F7
:1039F0001000000050010008383A000810000020B4
:103A0000F8060000700100081C00000043000000E0
:103A1000F8FFFFFF0C0000000E0000000F00000088
:103A20002E00000000000000010000001000000057
:083A300000127A000000000002
:04000005080000ED02
:00000001FF
